{
  "contractName": "DelegateV1",
  "abi": [
    {
      "constant": false,
      "inputs": [
        {
          "internalType": "uint256",
          "name": "num",
          "type": "uint256"
        }
      ],
      "name": "setNumberOfOwners",
      "outputs": [],
      "payable": false,
      "stateMutability": "nonpayable",
      "type": "function"
    },
    {
      "constant": true,
      "inputs": [],
      "name": "getNumberOfOwners",
      "outputs": [
        {
          "internalType": "uint256",
          "name": "",
          "type": "uint256"
        }
      ],
      "payable": false,
      "stateMutability": "view",
      "type": "function"
    }
  ],
  "bytecode": "0x608060405234801561001057600080fd5b50610247806100206000396000f3fe608060405234801561001057600080fd5b50600436106100365760003560e01c8063b85e5b741461003b578063f03cfed114610059575b600080fd5b610043610087565b6040518082815260200191505060405180910390f35b6100856004803603602081101561006f57600080fd5b810190808035906020019092919050505061015b565b005b60008060009054906101000a900473ffffffffffffffffffffffffffffffffffffffff1673ffffffffffffffffffffffffffffffffffffffff1663bd02d0f56040518163ffffffff1660e01b815260040180807f746f74616c000000000000000000000000000000000000000000000000000000815250602001905060206040518083038186803b15801561011b57600080fd5b505afa15801561012f573d6000803e3d6000fd5b505050506040513d602081101561014557600080fd5b8101908080519060200190929190505050905090565b6000809054906101000a900473ffffffffffffffffffffffffffffffffffffffff1673ffffffffffffffffffffffffffffffffffffffff1663e2a4853a826040518263ffffffff1660e01b815260040180807f746f74616c000000000000000000000000000000000000000000000000000000815250602001828152602001915050600060405180830381600087803b1580156101f757600080fd5b505af115801561020b573d6000803e3d6000fd5b505050505056fea265627a7a72315820b78b62885baafa72a3558f1d7627560eea813ed7a490da9167243508e0dfeab564736f6c63430005100032",
  "source": "pragma solidity ^0.5.16;\n\nimport \"./SafeMath.sol\";\nimport \"./StorageState.sol\";\n\ncontract DelegateV1 is StorageState {\n    using SafeMath for uint256;\n\n    function setNumberOfOwners(uint256 num) public {\n        _storage.setUint(\"total\", num);\n    }\n\n    function getNumberOfOwners() public view returns (uint256) {\n        return _storage.getUint(\"total\");\n    }\n}\n",
  "sourcePath": "/home/aman/Desktop/Etherum/upradeableToken/contracts/DelegateV1.sol",
  "compiler": {
    "name": "solc",
    "version": "0.5.16+commit.9c3226ce.Emscripten.clang"
  },
  "schemaVersion": "3.3.1",
  "updatedAt": "2021-02-04T06:55:45.148Z",
  "devdoc": {
    "methods": {}
  },
  "userdoc": {
    "methods": {}
  }
}