{
  "contractName": "DelegateV1",
  "abi": [
    {
      "constant": false,
      "inputs": [
        {
          "name": "num",
          "type": "uint256"
        }
      ],
      "name": "setNumberOfOwners",
      "outputs": [],
      "payable": false,
      "stateMutability": "nonpayable",
      "type": "function"
    },
    {
      "constant": true,
      "inputs": [],
      "name": "getNumberOfOwners",
      "outputs": [
        {
          "name": "",
          "type": "uint256"
        }
      ],
      "payable": false,
      "stateMutability": "view",
      "type": "function"
    }
  ],
  "bytecode": "0x6060604052341561000f57600080fd5b6102718061001e6000396000f30060606040526004361061004c576000357c0100000000000000000000000000000000000000000000000000000000900463ffffffff168063b85e5b7414610051578063f03cfed11461007a575b600080fd5b341561005c57600080fd5b61006461009d565b6040518082815260200191505060405180910390f35b341561008557600080fd5b61009b6004808035906020019091905050610177565b005b60008060009054906101000a900473ffffffffffffffffffffffffffffffffffffffff1673ffffffffffffffffffffffffffffffffffffffff1663bd02d0f56000604051602001526040518163ffffffff167c010000000000000000000000000000000000000000000000000000000002815260040180807f746f74616c0000000000000000000000000000000000000000000000000000008152506020019050602060405180830381600087803b151561015757600080fd5b6102c65a03f1151561016857600080fd5b50505060405180519050905090565b6000809054906101000a900473ffffffffffffffffffffffffffffffffffffffff1673ffffffffffffffffffffffffffffffffffffffff1663e2a4853a826040518263ffffffff167c010000000000000000000000000000000000000000000000000000000002815260040180807f746f74616c000000000000000000000000000000000000000000000000000000815250602001828152602001915050600060405180830381600087803b151561022e57600080fd5b6102c65a03f1151561023f57600080fd5b505050505600a165627a7a723058207aa13a3424858544729effa73b8d40f5f72d88c1751c50cf9a3b51fd67d30e2a0029",
  "source": "pragma solidity ^0.4.18;\n\nimport \"./SafeMath.sol\";\nimport \"./StorageState.sol\";\n\ncontract DelegateV1 is StorageState {\n    using SafeMath for uint256;\n\n    function setNumberOfOwners(uint256 num) public {\n        _storage.setUint(\"total\", num);\n    }\n\n    function getNumberOfOwners() public view returns (uint256) {\n        return _storage.getUint(\"total\");\n    }\n}\n",
  "sourcePath": "/home/aman/Desktop/Etherum/interviewTokens/contracts/DelegateV1.sol",
  "compiler": {
    "name": "solc",
    "version": "0.4.18+commit.9cf6e910.Emscripten.clang"
  },
  "schemaVersion": "3.2.5",
  "updatedAt": "2021-02-06T07:51:17.948Z",
  "devdoc": {
    "methods": {}
  },
  "userdoc": {
    "methods": {}
  }
}