{
  "contractName": "ERC20",
  "abi": [
    {
      "constant": false,
      "inputs": [
        {
          "name": "newOwner",
          "type": "address"
        }
      ],
      "name": "transferOwnership",
      "outputs": [],
      "payable": false,
      "stateMutability": "nonpayable",
      "type": "function"
    },
    {
      "inputs": [
        {
          "name": "name",
          "type": "string"
        },
        {
          "name": "symbol",
          "type": "string"
        },
        {
          "name": "decimals",
          "type": "uint8"
        },
        {
          "name": "totalSupply",
          "type": "uint256"
        }
      ],
      "payable": false,
      "stateMutability": "nonpayable",
      "type": "constructor"
    },
    {
      "anonymous": false,
      "inputs": [
        {
          "indexed": true,
          "name": "minter",
          "type": "address"
        },
        {
          "indexed": true,
          "name": "account",
          "type": "address"
        },
        {
          "indexed": false,
          "name": "amount",
          "type": "uint256"
        }
      ],
      "name": "Mint",
      "type": "event"
    },
    {
      "anonymous": false,
      "inputs": [
        {
          "indexed": true,
          "name": "burner",
          "type": "address"
        },
        {
          "indexed": true,
          "name": "account",
          "type": "address"
        },
        {
          "indexed": false,
          "name": "amount",
          "type": "uint256"
        }
      ],
      "name": "Burn",
      "type": "event"
    },
    {
      "anonymous": false,
      "inputs": [
        {
          "indexed": true,
          "name": "previousOwner",
          "type": "address"
        },
        {
          "indexed": true,
          "name": "newOwner",
          "type": "address"
        }
      ],
      "name": "OwnershipTransferred",
      "type": "event"
    },
    {
      "anonymous": false,
      "inputs": [
        {
          "indexed": true,
          "name": "from",
          "type": "address"
        },
        {
          "indexed": true,
          "name": "to",
          "type": "address"
        },
        {
          "indexed": false,
          "name": "value",
          "type": "uint256"
        }
      ],
      "name": "Transfer",
      "type": "event"
    },
    {
      "anonymous": false,
      "inputs": [
        {
          "indexed": true,
          "name": "owner",
          "type": "address"
        },
        {
          "indexed": true,
          "name": "spender",
          "type": "address"
        },
        {
          "indexed": false,
          "name": "value",
          "type": "uint256"
        }
      ],
      "name": "Approval",
      "type": "event"
    },
    {
      "constant": true,
      "inputs": [],
      "name": "name",
      "outputs": [
        {
          "name": "",
          "type": "string"
        }
      ],
      "payable": false,
      "stateMutability": "view",
      "type": "function"
    },
    {
      "constant": true,
      "inputs": [],
      "name": "symbol",
      "outputs": [
        {
          "name": "",
          "type": "string"
        }
      ],
      "payable": false,
      "stateMutability": "view",
      "type": "function"
    },
    {
      "constant": true,
      "inputs": [],
      "name": "decimals",
      "outputs": [
        {
          "name": "",
          "type": "uint8"
        }
      ],
      "payable": false,
      "stateMutability": "view",
      "type": "function"
    },
    {
      "constant": true,
      "inputs": [],
      "name": "totalSupply",
      "outputs": [
        {
          "name": "",
          "type": "uint256"
        }
      ],
      "payable": false,
      "stateMutability": "view",
      "type": "function"
    },
    {
      "constant": false,
      "inputs": [
        {
          "name": "_to",
          "type": "address"
        },
        {
          "name": "_value",
          "type": "uint256"
        }
      ],
      "name": "transfer",
      "outputs": [
        {
          "name": "",
          "type": "bool"
        }
      ],
      "payable": false,
      "stateMutability": "nonpayable",
      "type": "function"
    },
    {
      "constant": true,
      "inputs": [
        {
          "name": "_owner",
          "type": "address"
        }
      ],
      "name": "balanceOf",
      "outputs": [
        {
          "name": "balance",
          "type": "uint256"
        }
      ],
      "payable": false,
      "stateMutability": "view",
      "type": "function"
    },
    {
      "constant": false,
      "inputs": [
        {
          "name": "_spender",
          "type": "address"
        },
        {
          "name": "_value",
          "type": "uint256"
        }
      ],
      "name": "approve",
      "outputs": [
        {
          "name": "",
          "type": "bool"
        }
      ],
      "payable": false,
      "stateMutability": "nonpayable",
      "type": "function"
    },
    {
      "constant": false,
      "inputs": [
        {
          "name": "_from",
          "type": "address"
        },
        {
          "name": "_to",
          "type": "address"
        },
        {
          "name": "_value",
          "type": "uint256"
        }
      ],
      "name": "transferFrom",
      "outputs": [
        {
          "name": "",
          "type": "bool"
        }
      ],
      "payable": false,
      "stateMutability": "nonpayable",
      "type": "function"
    },
    {
      "constant": true,
      "inputs": [
        {
          "name": "_owner",
          "type": "address"
        },
        {
          "name": "_spender",
          "type": "address"
        }
      ],
      "name": "allowance",
      "outputs": [
        {
          "name": "",
          "type": "uint256"
        }
      ],
      "payable": false,
      "stateMutability": "view",
      "type": "function"
    },
    {
      "constant": false,
      "inputs": [
        {
          "name": "_spender",
          "type": "address"
        },
        {
          "name": "_addedValue",
          "type": "uint256"
        }
      ],
      "name": "increaseApproval",
      "outputs": [
        {
          "name": "",
          "type": "bool"
        }
      ],
      "payable": false,
      "stateMutability": "nonpayable",
      "type": "function"
    },
    {
      "constant": false,
      "inputs": [
        {
          "name": "_spender",
          "type": "address"
        },
        {
          "name": "_subtractedValue",
          "type": "uint256"
        }
      ],
      "name": "decreaseApproval",
      "outputs": [
        {
          "name": "",
          "type": "bool"
        }
      ],
      "payable": false,
      "stateMutability": "nonpayable",
      "type": "function"
    },
    {
      "constant": false,
      "inputs": [
        {
          "name": "_to",
          "type": "address"
        },
        {
          "name": "_amount",
          "type": "uint256"
        }
      ],
      "name": "mintTo",
      "outputs": [],
      "payable": false,
      "stateMutability": "nonpayable",
      "type": "function"
    },
    {
      "constant": false,
      "inputs": [
        {
          "name": "_from",
          "type": "address"
        },
        {
          "name": "_amount",
          "type": "uint256"
        }
      ],
      "name": "burnFrom",
      "outputs": [],
      "payable": false,
      "stateMutability": "nonpayable",
      "type": "function"
    }
  ],
  "bytecode": "0x606060405234156200001057600080fd5b60405162001ab638038062001ab683398101604052808051820191906020018051820191906020018051906020019091908051906020019091905050336000806101000a81548173ffffffffffffffffffffffffffffffffffffffff021916908373ffffffffffffffffffffffffffffffffffffffff1602179055508260029080519060200190620000a49291906200012e565b508360019080519060200190620000bd9291906200012e565b5081600360006101000a81548160ff021916908360ff1602179055508060048190555080600560003373ffffffffffffffffffffffffffffffffffffffff1673ffffffffffffffffffffffffffffffffffffffff1681526020019081526020016000208190555050505050620001dd565b828054600181600116156101000203166002900490600052602060002090601f016020900481019282601f106200017157805160ff1916838001178555620001a2565b82800160010185558215620001a2579182015b82811115620001a157825182559160200191906001019062000184565b5b509050620001b19190620001b5565b5090565b620001da91905b80821115620001d6576000816000905550600101620001bc565b5090565b90565b6118c980620001ed6000396000f3006060604052600436106100d0576000357c0100000000000000000000000000000000000000000000000000000000900463ffffffff16806306fdde03146100d5578063095ea7b31461016357806318160ddd146101bd57806323b872dd146101e6578063313ce5671461025f578063449a52f81461028e57806366188463146102d057806370a082311461032a57806379cc67901461037757806395d89b41146103b9578063a9059cbb14610447578063d73dd623146104a1578063dd62ed3e146104fb578063f2fde38b14610567575b600080fd5b34156100e057600080fd5b6100e86105a0565b6040518080602001828103825283818151815260200191508051906020019080838360005b8381101561012857808201518184015260208101905061010d565b50505050905090810190601f1680156101555780820380516001836020036101000a031916815260200191505b509250505060405180910390f35b341561016e57600080fd5b6101a3600480803573ffffffffffffffffffffffffffffffffffffffff16906020019091908035906020019091905050610648565b604051808215151515815260200191505060405180910390f35b34156101c857600080fd5b6101d061073a565b6040518082815260200191505060405180910390f35b34156101f157600080fd5b610245600480803573ffffffffffffffffffffffffffffffffffffffff1690602001909190803573ffffffffffffffffffffffffffffffffffffffff16906020019091908035906020019091905050610744565b604051808215151515815260200191505060405180910390f35b341561026a57600080fd5b610272610b24565b604051808260ff1660ff16815260200191505060405180910390f35b341561029957600080fd5b6102ce600480803573ffffffffffffffffffffffffffffffffffffffff16906020019091908035906020019091905050610b3b565b005b34156102db57600080fd5b610310600480803573ffffffffffffffffffffffffffffffffffffffff16906020019091908035906020019091905050610cfa565b604051808215151515815260200191505060405180910390f35b341561033557600080fd5b610361600480803573ffffffffffffffffffffffffffffffffffffffff16906020019091905050610f82565b6040518082815260200191505060405180910390f35b341561038257600080fd5b6103b7600480803573ffffffffffffffffffffffffffffffffffffffff16906020019091908035906020019091905050610fcb565b005b34156103c457600080fd5b6103cc6111c9565b6040518080602001828103825283818151815260200191508051906020019080838360005b8381101561040c5780820151818401526020810190506103f1565b50505050905090810190601f1680156104395780820380516001836020036101000a031916815260200191505b509250505060405180910390f35b341561045257600080fd5b610487600480803573ffffffffffffffffffffffffffffffffffffffff16906020019091908035906020019091905050611271565b604051808215151515815260200191505060405180910390f35b34156104ac57600080fd5b6104e1600480803573ffffffffffffffffffffffffffffffffffffffff16906020019091908035906020019091905050611483565b604051808215151515815260200191505060405180910390f35b341561050657600080fd5b610551600480803573ffffffffffffffffffffffffffffffffffffffff1690602001909190803573ffffffffffffffffffffffffffffffffffffffff16906020019091905050611676565b6040518082815260200191505060405180910390f35b341561057257600080fd5b61059e600480803573ffffffffffffffffffffffffffffffffffffffff169060200190919050506116fd565b005b6105a8611889565b60018054600181600116156101000203166002900480601f01602080910402602001604051908101604052809291908181526020018280546001816001161561010002031660029004801561063e5780601f106106135761010080835404028352916020019161063e565b820191906000526020600020905b81548152906001019060200180831161062157829003601f168201915b5050505050905090565b600081600660003373ffffffffffffffffffffffffffffffffffffffff1673ffffffffffffffffffffffffffffffffffffffff16815260200190815260200160002060008573ffffffffffffffffffffffffffffffffffffffff1673ffffffffffffffffffffffffffffffffffffffff168152602001908152602001600020819055508273ffffffffffffffffffffffffffffffffffffffff163373ffffffffffffffffffffffffffffffffffffffff167f8c5be1e5ebec7d5bd14f71427d1e84f3dd0314c0f7b2291e5b200ac8c7c3b925846040518082815260200191505060405180910390a36001905092915050565b6000600454905090565b60008073ffffffffffffffffffffffffffffffffffffffff168473ffffffffffffffffffffffffffffffffffffffff161415151561078157600080fd5b600073ffffffffffffffffffffffffffffffffffffffff168373ffffffffffffffffffffffffffffffffffffffff16141515156107bd57600080fd5b600560008573ffffffffffffffffffffffffffffffffffffffff1673ffffffffffffffffffffffffffffffffffffffff16815260200190815260200160002054821115151561080b57600080fd5b600660008573ffffffffffffffffffffffffffffffffffffffff1673ffffffffffffffffffffffffffffffffffffffff16815260200190815260200160002060003373ffffffffffffffffffffffffffffffffffffffff1673ffffffffffffffffffffffffffffffffffffffff16815260200190815260200160002054821115151561089657600080fd5b6108df600560008673ffffffffffffffffffffffffffffffffffffffff1673ffffffffffffffffffffffffffffffffffffffff1681526020019081526020016000205483611852565b600560008673ffffffffffffffffffffffffffffffffffffffff1673ffffffffffffffffffffffffffffffffffffffff1681526020019081526020016000208190555061096b600560008573ffffffffffffffffffffffffffffffffffffffff1673ffffffffffffffffffffffffffffffffffffffff168152602001908152602001600020548361186b565b600560008573ffffffffffffffffffffffffffffffffffffffff1673ffffffffffffffffffffffffffffffffffffffff16815260200190815260200160002081905550610a34600660008673ffffffffffffffffffffffffffffffffffffffff1673ffffffffffffffffffffffffffffffffffffffff16815260200190815260200160002060003373ffffffffffffffffffffffffffffffffffffffff1673ffffffffffffffffffffffffffffffffffffffff1681526020019081526020016000205483611852565b600660008673ffffffffffffffffffffffffffffffffffffffff1673ffffffffffffffffffffffffffffffffffffffff16815260200190815260200160002060003373ffffffffffffffffffffffffffffffffffffffff1673ffffffffffffffffffffffffffffffffffffffff168152602001908152602001600020819055508273ffffffffffffffffffffffffffffffffffffffff168473ffffffffffffffffffffffffffffffffffffffff167fddf252ad1be2c89b69c2b068fc378daa952ba7f163c4a11628f55a4df523b3ef846040518082815260200191505060405180910390a3600190509392505050565b6000600360009054906101000a900460ff16905090565b6000809054906101000a900473ffffffffffffffffffffffffffffffffffffffff1673ffffffffffffffffffffffffffffffffffffffff163373ffffffffffffffffffffffffffffffffffffffff16141515610b9657600080fd5b600073ffffffffffffffffffffffffffffffffffffffff168273ffffffffffffffffffffffffffffffffffffffff1614151515610bd257600080fd5b600081111515610be157600080fd5b610bf68160045461186b90919063ffffffff16565b600481905550610c4e81600560008573ffffffffffffffffffffffffffffffffffffffff1673ffffffffffffffffffffffffffffffffffffffff1681526020019081526020016000205461186b90919063ffffffff16565b600560008473ffffffffffffffffffffffffffffffffffffffff1673ffffffffffffffffffffffffffffffffffffffff168152602001908152602001600020819055508173ffffffffffffffffffffffffffffffffffffffff163373ffffffffffffffffffffffffffffffffffffffff167fab8530f87dc9b59234c4623bf917212bb2536d647574c8e7e5da92c2ede0c9f8836040518082815260200191505060405180910390a35050565b600080600660003373ffffffffffffffffffffffffffffffffffffffff1673ffffffffffffffffffffffffffffffffffffffff16815260200190815260200160002060008573ffffffffffffffffffffffffffffffffffffffff1673ffffffffffffffffffffffffffffffffffffffff16815260200190815260200160002054905080831115610e0b576000600660003373ffffffffffffffffffffffffffffffffffffffff1673ffffffffffffffffffffffffffffffffffffffff16815260200190815260200160002060008673ffffffffffffffffffffffffffffffffffffffff1673ffffffffffffffffffffffffffffffffffffffff16815260200190815260200160002081905550610e96565b610e158184611852565b600660003373ffffffffffffffffffffffffffffffffffffffff1673ffffffffffffffffffffffffffffffffffffffff16815260200190815260200160002060008673ffffffffffffffffffffffffffffffffffffffff1673ffffffffffffffffffffffffffffffffffffffff168152602001908152602001600020819055505b8373ffffffffffffffffffffffffffffffffffffffff163373ffffffffffffffffffffffffffffffffffffffff167f8c5be1e5ebec7d5bd14f71427d1e84f3dd0314c0f7b2291e5b200ac8c7c3b925600660003373ffffffffffffffffffffffffffffffffffffffff1673ffffffffffffffffffffffffffffffffffffffff16815260200190815260200160002060008873ffffffffffffffffffffffffffffffffffffffff1673ffffffffffffffffffffffffffffffffffffffff168152602001908152602001600020546040518082815260200191505060405180910390a3600191505092915050565b6000600560008373ffffffffffffffffffffffffffffffffffffffff1673ffffffffffffffffffffffffffffffffffffffff168152602001908152602001600020549050919050565b6000809054906101000a900473ffffffffffffffffffffffffffffffffffffffff1673ffffffffffffffffffffffffffffffffffffffff163373ffffffffffffffffffffffffffffffffffffffff1614151561102657600080fd5b600073ffffffffffffffffffffffffffffffffffffffff168273ffffffffffffffffffffffffffffffffffffffff161415151561106257600080fd5b80600560008473ffffffffffffffffffffffffffffffffffffffff1673ffffffffffffffffffffffffffffffffffffffff16815260200190815260200160002054101515156110b057600080fd5b61110281600560008573ffffffffffffffffffffffffffffffffffffffff1673ffffffffffffffffffffffffffffffffffffffff1681526020019081526020016000205461185290919063ffffffff16565b600560008473ffffffffffffffffffffffffffffffffffffffff1673ffffffffffffffffffffffffffffffffffffffff1681526020019081526020016000208190555061115a8160045461185290919063ffffffff16565b6004819055508173ffffffffffffffffffffffffffffffffffffffff163373ffffffffffffffffffffffffffffffffffffffff167fbac40739b0d4ca32fa2d82fc91630465ba3eddd1598da6fca393b26fb63b9453836040518082815260200191505060405180910390a35050565b6111d1611889565b60028054600181600116156101000203166002900480601f0160208091040260200160405190810160405280929190818152602001828054600181600116156101000203166002900480156112675780601f1061123c57610100808354040283529160200191611267565b820191906000526020600020905b81548152906001019060200180831161124a57829003601f168201915b5050505050905090565b60008073ffffffffffffffffffffffffffffffffffffffff168373ffffffffffffffffffffffffffffffffffffffff16141515156112ae57600080fd5b600560003373ffffffffffffffffffffffffffffffffffffffff1673ffffffffffffffffffffffffffffffffffffffff1681526020019081526020016000205482111515156112fc57600080fd5b611345600560003373ffffffffffffffffffffffffffffffffffffffff1673ffffffffffffffffffffffffffffffffffffffff1681526020019081526020016000205483611852565b600560003373ffffffffffffffffffffffffffffffffffffffff1673ffffffffffffffffffffffffffffffffffffffff168152602001908152602001600020819055506113d1600560008573ffffffffffffffffffffffffffffffffffffffff1673ffffffffffffffffffffffffffffffffffffffff168152602001908152602001600020548361186b565b600560008573ffffffffffffffffffffffffffffffffffffffff1673ffffffffffffffffffffffffffffffffffffffff168152602001908152602001600020819055508273ffffffffffffffffffffffffffffffffffffffff163373ffffffffffffffffffffffffffffffffffffffff167fddf252ad1be2c89b69c2b068fc378daa952ba7f163c4a11628f55a4df523b3ef846040518082815260200191505060405180910390a36001905092915050565b600061150b600660003373ffffffffffffffffffffffffffffffffffffffff1673ffffffffffffffffffffffffffffffffffffffff16815260200190815260200160002060008573ffffffffffffffffffffffffffffffffffffffff1673ffffffffffffffffffffffffffffffffffffffff168152602001908152602001600020548361186b565b600660003373ffffffffffffffffffffffffffffffffffffffff1673ffffffffffffffffffffffffffffffffffffffff16815260200190815260200160002060008573ffffffffffffffffffffffffffffffffffffffff1673ffffffffffffffffffffffffffffffffffffffff168152602001908152602001600020819055508273ffffffffffffffffffffffffffffffffffffffff163373ffffffffffffffffffffffffffffffffffffffff167f8c5be1e5ebec7d5bd14f71427d1e84f3dd0314c0f7b2291e5b200ac8c7c3b925600660003373ffffffffffffffffffffffffffffffffffffffff1673ffffffffffffffffffffffffffffffffffffffff16815260200190815260200160002060008773ffffffffffffffffffffffffffffffffffffffff1673ffffffffffffffffffffffffffffffffffffffff168152602001908152602001600020546040518082815260200191505060405180910390a36001905092915050565b6000600660008473ffffffffffffffffffffffffffffffffffffffff1673ffffffffffffffffffffffffffffffffffffffff16815260200190815260200160002060008373ffffffffffffffffffffffffffffffffffffffff1673ffffffffffffffffffffffffffffffffffffffff16815260200190815260200160002054905092915050565b6000809054906101000a900473ffffffffffffffffffffffffffffffffffffffff1673ffffffffffffffffffffffffffffffffffffffff163373ffffffffffffffffffffffffffffffffffffffff1614151561175857600080fd5b600073ffffffffffffffffffffffffffffffffffffffff168173ffffffffffffffffffffffffffffffffffffffff161415151561179457600080fd5b8073ffffffffffffffffffffffffffffffffffffffff166000809054906101000a900473ffffffffffffffffffffffffffffffffffffffff1673ffffffffffffffffffffffffffffffffffffffff167f8be0079c531659141344cd1fd0a4f28419497f9722a3daafe3b4186f6b6457e060405160405180910390a3806000806101000a81548173ffffffffffffffffffffffffffffffffffffffff021916908373ffffffffffffffffffffffffffffffffffffffff16021790555050565b600082821115151561186057fe5b818303905092915050565b600080828401905083811015151561187f57fe5b8091505092915050565b6020604051908101604052806000815250905600a165627a7a7230582024d627b9bebbdc1ab4c6dacfd6d441b3b6f175e238c189514c529a99e45f18c30029",
  "source": "//SPDX-License-Identifier: UNLICENSED\n\npragma solidity ^0.4.18;\n\nimport \"./IERC20.sol\";\nimport \"./SafeMath.sol\";\nimport \"./Ownable.sol\";\n\ncontract ERC20 is IERC20, Ownable {\n    using SafeMath for uint256;\n\n    string internal _name;\n    string internal _symbol;\n    uint8 internal _decimals;\n    uint256 internal _totalSupply;\n\n    mapping(address => uint256) internal _balances;\n    mapping(address => mapping(address => uint256)) internal _allowed;\n\n    event Mint(address indexed minter, address indexed account, uint256 amount);\n    event Burn(address indexed burner, address indexed account, uint256 amount);\n    modifier onlyOwner() {\n        require(msg.sender == owner);\n        _;\n    }\n\n    function ERC20(\n        string memory name,\n        string memory symbol,\n        uint8 decimals,\n        uint256 totalSupply\n    ) public {\n        _symbol = symbol;\n        _name = name;\n        _decimals = decimals;\n        _totalSupply = totalSupply;\n        _balances[msg.sender] = totalSupply;\n    }\n\n    function name() public view returns (string memory) {\n        return _name;\n    }\n\n    function symbol() public view returns (string memory) {\n        return _symbol;\n    }\n\n    function decimals() public view returns (uint8) {\n        return _decimals;\n    }\n\n    function totalSupply() external view returns (uint256) {\n        return _totalSupply;\n    }\n\n    function transfer(address _to, uint256 _value) external returns (bool) {\n        require(_to != address(0));\n        require(_value <= _balances[msg.sender]);\n\n        _balances[msg.sender] = SafeMath.sub(_balances[msg.sender], _value);\n        _balances[_to] = SafeMath.add(_balances[_to], _value);\n\n        Transfer(msg.sender, _to, _value);\n\n        return true;\n    }\n\n    function balanceOf(address _owner) external view returns (uint256 balance) {\n        return _balances[_owner];\n    }\n\n    function approve(address _spender, uint256 _value) external returns (bool) {\n        _allowed[msg.sender][_spender] = _value;\n\n        Approval(msg.sender, _spender, _value);\n\n        return true;\n    }\n\n    function transferFrom(\n        address _from,\n        address _to,\n        uint256 _value\n    ) external returns (bool) {\n        require(_from != address(0));\n        require(_to != address(0));\n        require(_value <= _balances[_from]);\n        require(_value <= _allowed[_from][msg.sender]);\n\n        _balances[_from] = SafeMath.sub(_balances[_from], _value);\n        _balances[_to] = SafeMath.add(_balances[_to], _value);\n        _allowed[_from][msg.sender] = SafeMath.sub(\n            _allowed[_from][msg.sender],\n            _value\n        );\n\n        Transfer(_from, _to, _value);\n\n        return true;\n    }\n\n    function allowance(address _owner, address _spender)\n        external\n        view\n        returns (uint256)\n    {\n        return _allowed[_owner][_spender];\n    }\n\n    function increaseApproval(address _spender, uint256 _addedValue)\n        public\n        returns (bool)\n    {\n        _allowed[msg.sender][_spender] = SafeMath.add(\n            _allowed[msg.sender][_spender],\n            _addedValue\n        );\n\n        Approval(msg.sender, _spender, _allowed[msg.sender][_spender]);\n\n        return true;\n    }\n\n    function decreaseApproval(address _spender, uint256 _subtractedValue)\n        public\n        returns (bool)\n    {\n        uint256 oldValue = _allowed[msg.sender][_spender];\n\n        if (_subtractedValue > oldValue) {\n            _allowed[msg.sender][_spender] = 0;\n        } else {\n            _allowed[msg.sender][_spender] = SafeMath.sub(\n                oldValue,\n                _subtractedValue\n            );\n        }\n\n        Approval(msg.sender, _spender, _allowed[msg.sender][_spender]);\n\n        return true;\n    }\n\n    function mintTo(address _to, uint256 _amount) public onlyOwner {\n        require(_to != address(0));\n        require(_amount > 0);\n\n        _totalSupply = _totalSupply.add(_amount);\n        _balances[_to] = _balances[_to].add(_amount);\n\n        Mint(msg.sender, _to, _amount);\n    }\n\n    function burnFrom(address _from, uint256 _amount) public onlyOwner {\n        require(_from != address(0));\n        require(_balances[_from] >= _amount);\n\n        _balances[_from] = _balances[_from].sub(_amount);\n        _totalSupply = _totalSupply.sub(_amount);\n\n        Burn(msg.sender, _from, _amount);\n    }\n}\n",
  "sourcePath": "/home/aman/Desktop/Etherum/interviewTokens/contracts/ERC20.sol",
  "compiler": {
    "name": "solc",
    "version": "0.4.18+commit.9cf6e910.Emscripten.clang"
  },
  "schemaVersion": "3.2.5",
  "updatedAt": "2021-02-06T07:51:17.956Z",
  "devdoc": {
    "methods": {
      "transferOwnership(address)": {
        "details": "Allows the current owner to transfer control of the contract to a newOwner.",
        "params": {
          "newOwner": "The address to transfer ownership to."
        }
      }
    }
  },
  "userdoc": {
    "methods": {}
  }
}