{
  "contractName": "KeyValueStorage",
  "abi": [
    {
      "constant": true,
      "inputs": [
        {
          "name": "key",
          "type": "bytes32"
        }
      ],
      "name": "getAddress",
      "outputs": [
        {
          "name": "",
          "type": "address"
        }
      ],
      "payable": false,
      "stateMutability": "view",
      "type": "function"
    },
    {
      "constant": true,
      "inputs": [
        {
          "name": "key",
          "type": "bytes32"
        }
      ],
      "name": "getUint",
      "outputs": [
        {
          "name": "",
          "type": "uint256"
        }
      ],
      "payable": false,
      "stateMutability": "view",
      "type": "function"
    },
    {
      "constant": true,
      "inputs": [
        {
          "name": "key",
          "type": "bytes32"
        }
      ],
      "name": "getBool",
      "outputs": [
        {
          "name": "",
          "type": "bool"
        }
      ],
      "payable": false,
      "stateMutability": "view",
      "type": "function"
    },
    {
      "constant": true,
      "inputs": [
        {
          "name": "owner",
          "type": "address"
        },
        {
          "name": "spender",
          "type": "address"
        }
      ],
      "name": "getAllowance",
      "outputs": [
        {
          "name": "",
          "type": "uint256"
        }
      ],
      "payable": false,
      "stateMutability": "view",
      "type": "function"
    },
    {
      "constant": false,
      "inputs": [
        {
          "name": "key",
          "type": "bytes32"
        },
        {
          "name": "value",
          "type": "address"
        }
      ],
      "name": "setAddress",
      "outputs": [],
      "payable": false,
      "stateMutability": "nonpayable",
      "type": "function"
    },
    {
      "constant": false,
      "inputs": [
        {
          "name": "key",
          "type": "bytes32"
        },
        {
          "name": "value",
          "type": "uint256"
        }
      ],
      "name": "setUint",
      "outputs": [],
      "payable": false,
      "stateMutability": "nonpayable",
      "type": "function"
    },
    {
      "constant": false,
      "inputs": [
        {
          "name": "key",
          "type": "bytes32"
        },
        {
          "name": "value",
          "type": "bool"
        }
      ],
      "name": "setBool",
      "outputs": [],
      "payable": false,
      "stateMutability": "nonpayable",
      "type": "function"
    },
    {
      "constant": false,
      "inputs": [
        {
          "name": "owner",
          "type": "address"
        },
        {
          "name": "spender",
          "type": "address"
        },
        {
          "name": "value",
          "type": "uint256"
        }
      ],
      "name": "setAllowance",
      "outputs": [],
      "payable": false,
      "stateMutability": "nonpayable",
      "type": "function"
    },
    {
      "constant": false,
      "inputs": [
        {
          "name": "key",
          "type": "bytes32"
        }
      ],
      "name": "deleteAddress",
      "outputs": [],
      "payable": false,
      "stateMutability": "nonpayable",
      "type": "function"
    },
    {
      "constant": false,
      "inputs": [
        {
          "name": "key",
          "type": "bytes32"
        }
      ],
      "name": "deleteUint",
      "outputs": [],
      "payable": false,
      "stateMutability": "nonpayable",
      "type": "function"
    },
    {
      "constant": false,
      "inputs": [
        {
          "name": "key",
          "type": "bytes32"
        }
      ],
      "name": "deleteBool",
      "outputs": [],
      "payable": false,
      "stateMutability": "nonpayable",
      "type": "function"
    }
  ],
  "bytecode": "0x6060604052341561000f57600080fd5b61093a8061001e6000396000f3006060604052600436106100af576000357c0100000000000000000000000000000000000000000000000000000000900463ffffffff1680630af4187d146100b45780630e14a3761461012057806321f8a721146101475780632c62ff2d146101ae5780637ae1cfca146101d5578063abfdcced14610214578063bd02d0f514610246578063ca446dd914610281578063da46098c146102c7578063e2a4853a14610328578063e2b202bf14610358575b600080fd5b34156100bf57600080fd5b61010a600480803573ffffffffffffffffffffffffffffffffffffffff1690602001909190803573ffffffffffffffffffffffffffffffffffffffff1690602001909190505061037f565b6040518082815260200191505060405180910390f35b341561012b57600080fd5b610145600480803560001916906020019091905050610443565b005b341561015257600080fd5b61016c6004808035600019169060200190919050506104c1565b604051808273ffffffffffffffffffffffffffffffffffffffff1673ffffffffffffffffffffffffffffffffffffffff16815260200191505060405180910390f35b34156101b957600080fd5b6101d3600480803560001916906020019091905050610543565b005b34156101e057600080fd5b6101fa6004808035600019169060200190919050506105ae565b604051808215151515815260200191505060405180910390f35b341561021f57600080fd5b610244600480803560001916906020019091908035151590602001909190505061061d565b005b341561025157600080fd5b61026b600480803560001916906020019091905050610691565b6040518082815260200191505060405180910390f35b341561028c57600080fd5b6102c560048080356000191690602001909190803573ffffffffffffffffffffffffffffffffffffffff169060200190919050506106f2565b005b34156102d257600080fd5b610326600480803573ffffffffffffffffffffffffffffffffffffffff1690602001909190803573ffffffffffffffffffffffffffffffffffffffff1690602001909190803590602001909190505061078d565b005b341561033357600080fd5b610356600480803560001916906020019091908035906020019091905050610850565b005b341561036357600080fd5b61037d6004808035600019169060200190919050506108b0565b005b6000600360003373ffffffffffffffffffffffffffffffffffffffff1673ffffffffffffffffffffffffffffffffffffffff16815260200190815260200160002060008473ffffffffffffffffffffffffffffffffffffffff1673ffffffffffffffffffffffffffffffffffffffff16815260200190815260200160002060008373ffffffffffffffffffffffffffffffffffffffff1673ffffffffffffffffffffffffffffffffffffffff16815260200190815260200160002054905092915050565b600160003373ffffffffffffffffffffffffffffffffffffffff1673ffffffffffffffffffffffffffffffffffffffff1681526020019081526020016000206000826000191660001916815260200190815260200160002060006101000a81549073ffffffffffffffffffffffffffffffffffffffff021916905550565b6000600160003373ffffffffffffffffffffffffffffffffffffffff1673ffffffffffffffffffffffffffffffffffffffff1681526020019081526020016000206000836000191660001916815260200190815260200160002060009054906101000a900473ffffffffffffffffffffffffffffffffffffffff169050919050565b600260003373ffffffffffffffffffffffffffffffffffffffff1673ffffffffffffffffffffffffffffffffffffffff1681526020019081526020016000206000826000191660001916815260200190815260200160002060006101000a81549060ff021916905550565b6000600260003373ffffffffffffffffffffffffffffffffffffffff1673ffffffffffffffffffffffffffffffffffffffff1681526020019081526020016000206000836000191660001916815260200190815260200160002060009054906101000a900460ff169050919050565b80600260003373ffffffffffffffffffffffffffffffffffffffff1673ffffffffffffffffffffffffffffffffffffffff1681526020019081526020016000206000846000191660001916815260200190815260200160002060006101000a81548160ff0219169083151502179055505050565b60008060003373ffffffffffffffffffffffffffffffffffffffff1673ffffffffffffffffffffffffffffffffffffffff16815260200190815260200160002060008360001916600019168152602001908152602001600020549050919050565b80600160003373ffffffffffffffffffffffffffffffffffffffff1673ffffffffffffffffffffffffffffffffffffffff1681526020019081526020016000206000846000191660001916815260200190815260200160002060006101000a81548173ffffffffffffffffffffffffffffffffffffffff021916908373ffffffffffffffffffffffffffffffffffffffff1602179055505050565b80600360003373ffffffffffffffffffffffffffffffffffffffff1673ffffffffffffffffffffffffffffffffffffffff16815260200190815260200160002060008573ffffffffffffffffffffffffffffffffffffffff1673ffffffffffffffffffffffffffffffffffffffff16815260200190815260200160002060008473ffffffffffffffffffffffffffffffffffffffff1673ffffffffffffffffffffffffffffffffffffffff16815260200190815260200160002081905550505050565b806000803373ffffffffffffffffffffffffffffffffffffffff1673ffffffffffffffffffffffffffffffffffffffff16815260200190815260200160002060008460001916600019168152602001908152602001600020819055505050565b6000803373ffffffffffffffffffffffffffffffffffffffff1673ffffffffffffffffffffffffffffffffffffffff1681526020019081526020016000206000826000191660001916815260200190815260200160002060009055505600a165627a7a723058206f729d67a539558283a0fbdc179e7ab7311af528faeebc603bd1a62988f5b5730029",
  "source": "//SPDX-License-Identifier: UNLICENSED\n\npragma solidity ^0.4.18;\n\ncontract KeyValueStorage {\n    mapping(address => mapping(bytes32 => uint256)) _uintStorage;\n    mapping(address => mapping(bytes32 => address)) _addressStorage;\n    mapping(address => mapping(bytes32 => bool)) _boolStorage;\n    mapping(address => mapping(address => mapping(address => uint256))) _allowanceStorage;\n\n    /**** Get Methods ***********/\n\n    function getAddress(bytes32 key) public view returns (address) {\n        return _addressStorage[msg.sender][key];\n    }\n\n    function getUint(bytes32 key) public view returns (uint256) {\n        return _uintStorage[msg.sender][key];\n    }\n\n    function getBool(bytes32 key) public view returns (bool) {\n        return _boolStorage[msg.sender][key];\n    }\n\n    function getAllowance(address owner, address spender)\n        public\n        view\n        returns (uint256)\n    {\n        return _allowanceStorage[msg.sender][owner][spender];\n    }\n\n    /**** Set Methods ***********/\n\n    function setAddress(bytes32 key, address value) public {\n        _addressStorage[msg.sender][key] = value;\n    }\n\n    function setUint(bytes32 key, uint256 value) public {\n        _uintStorage[msg.sender][key] = value;\n    }\n\n    function setBool(bytes32 key, bool value) public {\n        _boolStorage[msg.sender][key] = value;\n    }\n\n    function setAllowance(\n        address owner,\n        address spender,\n        uint256 value\n    ) public {\n        _allowanceStorage[msg.sender][owner][spender] = value;\n    }\n\n    /**** Delete Methods ***********/\n\n    function deleteAddress(bytes32 key) public {\n        delete _addressStorage[msg.sender][key];\n    }\n\n    function deleteUint(bytes32 key) public {\n        delete _uintStorage[msg.sender][key];\n    }\n\n    function deleteBool(bytes32 key) public {\n        delete _boolStorage[msg.sender][key];\n    }\n}\n",
  "sourcePath": "/home/aman/Desktop/Etherum/interviewTokens/contracts/KeyValueStorage.sol",
  "compiler": {
    "name": "solc",
    "version": "0.4.18+commit.9cf6e910.Emscripten.clang"
  },
  "schemaVersion": "3.2.5",
  "updatedAt": "2021-02-06T07:51:17.965Z",
  "devdoc": {
    "methods": {}
  },
  "userdoc": {
    "methods": {
      "deleteAddress(bytes32)": {
        "notice": "** Delete Methods **********"
      },
      "getAddress(bytes32)": {
        "notice": "** Get Methods **********"
      },
      "setAddress(bytes32,address)": {
        "notice": "** Set Methods **********"
      }
    }
  }
}