{
  "contractName": "KeyValueStorage",
  "abi": [
    {
      "constant": true,
      "inputs": [
        {
          "internalType": "bytes32",
          "name": "key",
          "type": "bytes32"
        }
      ],
      "name": "getAddress",
      "outputs": [
        {
          "internalType": "address",
          "name": "",
          "type": "address"
        }
      ],
      "payable": false,
      "stateMutability": "view",
      "type": "function"
    },
    {
      "constant": true,
      "inputs": [
        {
          "internalType": "bytes32",
          "name": "key",
          "type": "bytes32"
        }
      ],
      "name": "getUint",
      "outputs": [
        {
          "internalType": "uint256",
          "name": "",
          "type": "uint256"
        }
      ],
      "payable": false,
      "stateMutability": "view",
      "type": "function"
    },
    {
      "constant": true,
      "inputs": [
        {
          "internalType": "bytes32",
          "name": "key",
          "type": "bytes32"
        }
      ],
      "name": "getBool",
      "outputs": [
        {
          "internalType": "bool",
          "name": "",
          "type": "bool"
        }
      ],
      "payable": false,
      "stateMutability": "view",
      "type": "function"
    },
    {
      "constant": true,
      "inputs": [
        {
          "internalType": "address",
          "name": "owner",
          "type": "address"
        },
        {
          "internalType": "address",
          "name": "spender",
          "type": "address"
        }
      ],
      "name": "getAllowance",
      "outputs": [
        {
          "internalType": "uint256",
          "name": "",
          "type": "uint256"
        }
      ],
      "payable": false,
      "stateMutability": "view",
      "type": "function"
    },
    {
      "constant": false,
      "inputs": [
        {
          "internalType": "bytes32",
          "name": "key",
          "type": "bytes32"
        },
        {
          "internalType": "address",
          "name": "value",
          "type": "address"
        }
      ],
      "name": "setAddress",
      "outputs": [],
      "payable": false,
      "stateMutability": "nonpayable",
      "type": "function"
    },
    {
      "constant": false,
      "inputs": [
        {
          "internalType": "bytes32",
          "name": "key",
          "type": "bytes32"
        },
        {
          "internalType": "uint256",
          "name": "value",
          "type": "uint256"
        }
      ],
      "name": "setUint",
      "outputs": [],
      "payable": false,
      "stateMutability": "nonpayable",
      "type": "function"
    },
    {
      "constant": false,
      "inputs": [
        {
          "internalType": "bytes32",
          "name": "key",
          "type": "bytes32"
        },
        {
          "internalType": "bool",
          "name": "value",
          "type": "bool"
        }
      ],
      "name": "setBool",
      "outputs": [],
      "payable": false,
      "stateMutability": "nonpayable",
      "type": "function"
    },
    {
      "constant": false,
      "inputs": [
        {
          "internalType": "address",
          "name": "owner",
          "type": "address"
        },
        {
          "internalType": "address",
          "name": "spender",
          "type": "address"
        },
        {
          "internalType": "uint256",
          "name": "value",
          "type": "uint256"
        }
      ],
      "name": "setAllowance",
      "outputs": [],
      "payable": false,
      "stateMutability": "nonpayable",
      "type": "function"
    },
    {
      "constant": false,
      "inputs": [
        {
          "internalType": "bytes32",
          "name": "key",
          "type": "bytes32"
        }
      ],
      "name": "deleteAddress",
      "outputs": [],
      "payable": false,
      "stateMutability": "nonpayable",
      "type": "function"
    },
    {
      "constant": false,
      "inputs": [
        {
          "internalType": "bytes32",
          "name": "key",
          "type": "bytes32"
        }
      ],
      "name": "deleteUint",
      "outputs": [],
      "payable": false,
      "stateMutability": "nonpayable",
      "type": "function"
    },
    {
      "constant": false,
      "inputs": [
        {
          "internalType": "bytes32",
          "name": "key",
          "type": "bytes32"
        }
      ],
      "name": "deleteBool",
      "outputs": [],
      "payable": false,
      "stateMutability": "nonpayable",
      "type": "function"
    }
  ],
  "bytecode": "0x608060405234801561001057600080fd5b50610950806100206000396000f3fe608060405234801561001057600080fd5b50600436106100a95760003560e01c8063abfdcced11610071578063abfdcced14610236578063bd02d0f514610270578063ca446dd9146102b2578063da46098c14610300578063e2a4853a1461036e578063e2b202bf146103a6576100a9565b80630af4187d146100ae5780630e14a3761461012657806321f8a721146101545780632c62ff2d146101c25780637ae1cfca146101f0575b600080fd5b610110600480360360408110156100c457600080fd5b81019080803573ffffffffffffffffffffffffffffffffffffffff169060200190929190803573ffffffffffffffffffffffffffffffffffffffff1690602001909291905050506103d4565b6040518082815260200191505060405180910390f35b6101526004803603602081101561013c57600080fd5b8101908080359060200190929190505050610498565b005b6101806004803603602081101561016a57600080fd5b810190808035906020019092919050505061050e565b604051808273ffffffffffffffffffffffffffffffffffffffff1673ffffffffffffffffffffffffffffffffffffffff16815260200191505060405180910390f35b6101ee600480360360208110156101d857600080fd5b8101908080359060200190929190505050610588565b005b61021c6004803603602081101561020657600080fd5b81019080803590602001909291905050506105eb565b604051808215151515815260200191505060405180910390f35b61026e6004803603604081101561024c57600080fd5b8101908080359060200190929190803515159060200190929190505050610652565b005b61029c6004803603602081101561028657600080fd5b81019080803590602001909291905050506106be565b6040518082815260200191505060405180910390f35b6102fe600480360360408110156102c857600080fd5b8101908080359060200190929190803573ffffffffffffffffffffffffffffffffffffffff169060200190929190505050610717565b005b61036c6004803603606081101561031657600080fd5b81019080803573ffffffffffffffffffffffffffffffffffffffff169060200190929190803573ffffffffffffffffffffffffffffffffffffffff169060200190929190803590602001909291905050506107aa565b005b6103a46004803603604081101561038457600080fd5b81019080803590602001909291908035906020019092919050505061086d565b005b6103d2600480360360208110156103bc57600080fd5b81019080803590602001909291905050506108c5565b005b6000600360003373ffffffffffffffffffffffffffffffffffffffff1673ffffffffffffffffffffffffffffffffffffffff16815260200190815260200160002060008473ffffffffffffffffffffffffffffffffffffffff1673ffffffffffffffffffffffffffffffffffffffff16815260200190815260200160002060008373ffffffffffffffffffffffffffffffffffffffff1673ffffffffffffffffffffffffffffffffffffffff16815260200190815260200160002054905092915050565b600160003373ffffffffffffffffffffffffffffffffffffffff1673ffffffffffffffffffffffffffffffffffffffff168152602001908152602001600020600082815260200190815260200160002060006101000a81549073ffffffffffffffffffffffffffffffffffffffff021916905550565b6000600160003373ffffffffffffffffffffffffffffffffffffffff1673ffffffffffffffffffffffffffffffffffffffff168152602001908152602001600020600083815260200190815260200160002060009054906101000a900473ffffffffffffffffffffffffffffffffffffffff169050919050565b600260003373ffffffffffffffffffffffffffffffffffffffff1673ffffffffffffffffffffffffffffffffffffffff168152602001908152602001600020600082815260200190815260200160002060006101000a81549060ff021916905550565b6000600260003373ffffffffffffffffffffffffffffffffffffffff1673ffffffffffffffffffffffffffffffffffffffff168152602001908152602001600020600083815260200190815260200160002060009054906101000a900460ff169050919050565b80600260003373ffffffffffffffffffffffffffffffffffffffff1673ffffffffffffffffffffffffffffffffffffffff168152602001908152602001600020600084815260200190815260200160002060006101000a81548160ff0219169083151502179055505050565b60008060003373ffffffffffffffffffffffffffffffffffffffff1673ffffffffffffffffffffffffffffffffffffffff1681526020019081526020016000206000838152602001908152602001600020549050919050565b80600160003373ffffffffffffffffffffffffffffffffffffffff1673ffffffffffffffffffffffffffffffffffffffff168152602001908152602001600020600084815260200190815260200160002060006101000a81548173ffffffffffffffffffffffffffffffffffffffff021916908373ffffffffffffffffffffffffffffffffffffffff1602179055505050565b80600360003373ffffffffffffffffffffffffffffffffffffffff1673ffffffffffffffffffffffffffffffffffffffff16815260200190815260200160002060008573ffffffffffffffffffffffffffffffffffffffff1673ffffffffffffffffffffffffffffffffffffffff16815260200190815260200160002060008473ffffffffffffffffffffffffffffffffffffffff1673ffffffffffffffffffffffffffffffffffffffff16815260200190815260200160002081905550505050565b806000803373ffffffffffffffffffffffffffffffffffffffff1673ffffffffffffffffffffffffffffffffffffffff1681526020019081526020016000206000848152602001908152602001600020819055505050565b6000803373ffffffffffffffffffffffffffffffffffffffff1673ffffffffffffffffffffffffffffffffffffffff1681526020019081526020016000206000828152602001908152602001600020600090555056fea265627a7a7231582078a38af7cc5847b97ab51f2063b11a28df76bf58fff4650828305288a64cf66464736f6c63430005100032",
  "source": "pragma solidity ^0.5.16;\n\ncontract KeyValueStorage {\n    mapping(address => mapping(bytes32 => uint256)) _uintStorage;\n    mapping(address => mapping(bytes32 => address)) _addressStorage;\n    mapping(address => mapping(bytes32 => bool)) _boolStorage;\n    mapping(address => mapping(address => mapping(address => uint256))) _allowanceStorage;\n\n    /**** Get Methods ***********/\n\n    function getAddress(bytes32 key) public view returns (address) {\n        return _addressStorage[msg.sender][key];\n    }\n\n    function getUint(bytes32 key) public view returns (uint256) {\n        return _uintStorage[msg.sender][key];\n    }\n\n    function getBool(bytes32 key) public view returns (bool) {\n        return _boolStorage[msg.sender][key];\n    }\n\n    function getAllowance(address owner, address spender)\n        public\n        view\n        returns (uint256)\n    {\n        return _allowanceStorage[msg.sender][owner][spender];\n    }\n\n    /**** Set Methods ***********/\n\n    function setAddress(bytes32 key, address value) public {\n        _addressStorage[msg.sender][key] = value;\n    }\n\n    function setUint(bytes32 key, uint256 value) public {\n        _uintStorage[msg.sender][key] = value;\n    }\n\n    function setBool(bytes32 key, bool value) public {\n        _boolStorage[msg.sender][key] = value;\n    }\n\n    function setAllowance(\n        address owner,\n        address spender,\n        uint256 value\n    ) public {\n        _allowanceStorage[msg.sender][owner][spender] = value;\n    }\n\n    /**** Delete Methods ***********/\n\n    function deleteAddress(bytes32 key) public {\n        delete _addressStorage[msg.sender][key];\n    }\n\n    function deleteUint(bytes32 key) public {\n        delete _uintStorage[msg.sender][key];\n    }\n\n    function deleteBool(bytes32 key) public {\n        delete _boolStorage[msg.sender][key];\n    }\n}\n",
  "sourcePath": "/home/aman/Desktop/Etherum/upradeableToken/contracts/KeyValueStorage.sol",
  "compiler": {
    "name": "solc",
    "version": "0.5.16+commit.9c3226ce.Emscripten.clang"
  },
  "schemaVersion": "3.3.1",
  "updatedAt": "2021-02-04T06:55:45.149Z",
  "devdoc": {
    "methods": {}
  },
  "userdoc": {
    "methods": {
      "deleteAddress(bytes32)": {
        "notice": "** Delete Methods **********"
      },
      "getAddress(bytes32)": {
        "notice": "** Get Methods **********"
      },
      "setAddress(bytes32,address)": {
        "notice": "** Set Methods **********"
      }
    }
  }
}