{
  "contractName": "Proxy",
  "abi": [
    {
      "constant": true,
      "inputs": [],
      "name": "_implementation",
      "outputs": [
        {
          "name": "",
          "type": "address"
        }
      ],
      "payable": false,
      "stateMutability": "view",
      "type": "function"
    },
    {
      "constant": false,
      "inputs": [
        {
          "name": "newOwner",
          "type": "address"
        }
      ],
      "name": "transferOwnership",
      "outputs": [],
      "payable": false,
      "stateMutability": "nonpayable",
      "type": "function"
    },
    {
      "inputs": [
        {
          "name": "storage_",
          "type": "address"
        },
        {
          "name": "_owner",
          "type": "address"
        }
      ],
      "payable": false,
      "stateMutability": "nonpayable",
      "type": "constructor"
    },
    {
      "payable": true,
      "stateMutability": "payable",
      "type": "fallback"
    },
    {
      "anonymous": false,
      "inputs": [
        {
          "indexed": true,
          "name": "deadline",
          "type": "uint256"
        }
      ],
      "name": "Deadline",
      "type": "event"
    },
    {
      "anonymous": false,
      "inputs": [
        {
          "indexed": true,
          "name": "implementation",
          "type": "address"
        }
      ],
      "name": "Upgraded",
      "type": "event"
    },
    {
      "anonymous": false,
      "inputs": [
        {
          "indexed": true,
          "name": "previousOwner",
          "type": "address"
        },
        {
          "indexed": true,
          "name": "newOwner",
          "type": "address"
        }
      ],
      "name": "OwnershipTransferred",
      "type": "event"
    },
    {
      "constant": true,
      "inputs": [],
      "name": "implementation",
      "outputs": [
        {
          "name": "",
          "type": "address"
        }
      ],
      "payable": false,
      "stateMutability": "view",
      "type": "function"
    },
    {
      "constant": false,
      "inputs": [
        {
          "name": "impl",
          "type": "address"
        }
      ],
      "name": "upgradeTo",
      "outputs": [],
      "payable": false,
      "stateMutability": "nonpayable",
      "type": "function"
    }
  ],
  "bytecode": "0x6060604052600a600255341561001457600080fd5b6040516040806107678339810160405280805190602001909190805190602001909190505033600160006101000a81548173ffffffffffffffffffffffffffffffffffffffff021916908373ffffffffffffffffffffffffffffffffffffffff160217905550816000806101000a81548173ffffffffffffffffffffffffffffffffffffffff021916908373ffffffffffffffffffffffffffffffffffffffff1602179055506000809054906101000a900473ffffffffffffffffffffffffffffffffffffffff1673ffffffffffffffffffffffffffffffffffffffff1663ca446dd9826040518263ffffffff167c010000000000000000000000000000000000000000000000000000000002815260040180807f6f776e65720000000000000000000000000000000000000000000000000000008152506020018273ffffffffffffffffffffffffffffffffffffffff1673ffffffffffffffffffffffffffffffffffffffff168152602001915050600060405180830381600087803b151561019d57600080fd5b6102c65a03f115156101ae57600080fd5b50505050506105a5806101c26000396000f300606060405260043610610062576000357c0100000000000000000000000000000000000000000000000000000000900463ffffffff1680633659cfe61461011257806359679b0f1461014b5780635c60da1b146101a0578063f2fde38b146101f5575b600061006c610565565b61007461022e565b9150600073ffffffffffffffffffffffffffffffffffffffff168273ffffffffffffffffffffffffffffffffffffffff16141515156100b257600080fd5b6000368080601f0160208091040260200160405190810160405280939291908181526020018383808284378201915050505050509050600080825160208401855af46040518115600181146101065761010b565b600080fd5b5050505050005b341561011d57600080fd5b610149600480803573ffffffffffffffffffffffffffffffffffffffff16906020019091905050610258565b005b341561015657600080fd5b61015e6103e7565b604051808273ffffffffffffffffffffffffffffffffffffffff1673ffffffffffffffffffffffffffffffffffffffff16815260200191505060405180910390f35b34156101ab57600080fd5b6101b361022e565b604051808273ffffffffffffffffffffffffffffffffffffffff1673ffffffffffffffffffffffffffffffffffffffff16815260200191505060405180910390f35b341561020057600080fd5b61022c600480803573ffffffffffffffffffffffffffffffffffffffff1690602001909190505061040d565b005b6000600360009054906101000a900473ffffffffffffffffffffffffffffffffffffffff16905090565b600160009054906101000a900473ffffffffffffffffffffffffffffffffffffffff1673ffffffffffffffffffffffffffffffffffffffff163373ffffffffffffffffffffffffffffffffffffffff161415156102b457600080fd5b426002541015156102c457600080fd5b8073ffffffffffffffffffffffffffffffffffffffff16600360009054906101000a900473ffffffffffffffffffffffffffffffffffffffff1673ffffffffffffffffffffffffffffffffffffffff161415151561032157600080fd5b80600360006101000a81548173ffffffffffffffffffffffffffffffffffffffff021916908373ffffffffffffffffffffffffffffffffffffffff160217905550426002600082825401925050819055508073ffffffffffffffffffffffffffffffffffffffff167fbc7cd75a20ee27fd9adebab32041f755214dbc6bffa90cc0225b39da2e5c2d3b60405160405180910390a26002547f02cd0f962e62be582c42a69232ce8a51199f039c40654f85b95cd182797ab8d660405160405180910390a250565b600360009054906101000a900473ffffffffffffffffffffffffffffffffffffffff1681565b600160009054906101000a900473ffffffffffffffffffffffffffffffffffffffff1673ffffffffffffffffffffffffffffffffffffffff163373ffffffffffffffffffffffffffffffffffffffff1614151561046957600080fd5b600073ffffffffffffffffffffffffffffffffffffffff168173ffffffffffffffffffffffffffffffffffffffff16141515156104a557600080fd5b8073ffffffffffffffffffffffffffffffffffffffff16600160009054906101000a900473ffffffffffffffffffffffffffffffffffffffff1673ffffffffffffffffffffffffffffffffffffffff167f8be0079c531659141344cd1fd0a4f28419497f9722a3daafe3b4186f6b6457e060405160405180910390a380600160006101000a81548173ffffffffffffffffffffffffffffffffffffffff021916908373ffffffffffffffffffffffffffffffffffffffff16021790555050565b6020604051908101604052806000815250905600a165627a7a72305820c090c5cfdf88bfe869acef4db71d89ce20d113b77b604faf9cde8f4a2698958a0029",
  "source": "//SPDX-License-Identifier: UNLICENSED\n\npragma solidity ^0.4.18;\n\nimport \"./Ownable.sol\";\nimport \"./StorageState.sol\";\n\ncontract Proxy is StorageState, Ownable {\n    uint256 deadline = 10 seconds;\n    event Deadline(uint256 indexed deadline);\n\n    function Proxy(KeyValueStorage storage_, address _owner) public {\n        _storage = storage_;\n        _storage.setAddress(\"owner\", _owner);\n    }\n\n    modifier checkUpgradeTime() {\n        require(deadline < now);\n        _;\n    }\n    event Upgraded(address indexed implementation);\n\n    address public _implementation;\n\n    function implementation() public view returns (address) {\n        return _implementation;\n    }\n\n    function upgradeTo(address impl) public onlyOwner checkUpgradeTime {\n        require(_implementation != impl);\n        _implementation = impl;\n        deadline += now;\n\n        Upgraded(impl);\n        Deadline(deadline);\n    }\n\n    function() external payable {\n        address _impl = implementation();\n        require(_impl != address(0));\n        bytes memory data = msg.data;\n        assembly {\n            let succeeded := delegatecall(\n                gas,\n                _impl,\n                add(data, 0x20),\n                mload(data),\n                0,\n                0\n            )\n            let response := mload(0x40)\n            switch iszero(succeeded)\n                case 1 {\n                    revert(0, 0)\n                }\n        }\n    }\n}\n",
  "sourcePath": "/home/aman/Desktop/Etherum/interviewTokens/contracts/Proxy.sol",
  "compiler": {
    "name": "solc",
    "version": "0.4.18+commit.9cf6e910.Emscripten.clang"
  },
  "schemaVersion": "3.2.5",
  "updatedAt": "2021-02-06T07:51:17.971Z",
  "devdoc": {
    "methods": {
      "transferOwnership(address)": {
        "details": "Allows the current owner to transfer control of the contract to a newOwner.",
        "params": {
          "newOwner": "The address to transfer ownership to."
        }
      }
    }
  },
  "userdoc": {
    "methods": {}
  }
}