{
  "contractName": "Proxy",
  "abi": [
    {
      "inputs": [
        {
          "internalType": "contract KeyValueStorage",
          "name": "storage_",
          "type": "address"
        },
        {
          "internalType": "address",
          "name": "_owner",
          "type": "address"
        }
      ],
      "payable": false,
      "stateMutability": "nonpayable",
      "type": "constructor"
    },
    {
      "anonymous": false,
      "inputs": [
        {
          "indexed": true,
          "internalType": "address",
          "name": "previousOwner",
          "type": "address"
        },
        {
          "indexed": true,
          "internalType": "address",
          "name": "newOwner",
          "type": "address"
        }
      ],
      "name": "OwnershipTransferred",
      "type": "event"
    },
    {
      "anonymous": false,
      "inputs": [
        {
          "indexed": true,
          "internalType": "address",
          "name": "implementation",
          "type": "address"
        }
      ],
      "name": "Upgraded",
      "type": "event"
    },
    {
      "payable": true,
      "stateMutability": "payable",
      "type": "fallback"
    },
    {
      "constant": true,
      "inputs": [],
      "name": "_implementation",
      "outputs": [
        {
          "internalType": "address",
          "name": "",
          "type": "address"
        }
      ],
      "payable": false,
      "stateMutability": "view",
      "type": "function"
    },
    {
      "constant": false,
      "inputs": [
        {
          "internalType": "address",
          "name": "newOwner",
          "type": "address"
        }
      ],
      "name": "transferOwnership",
      "outputs": [],
      "payable": false,
      "stateMutability": "nonpayable",
      "type": "function"
    },
    {
      "constant": true,
      "inputs": [],
      "name": "implementation",
      "outputs": [
        {
          "internalType": "address",
          "name": "",
          "type": "address"
        }
      ],
      "payable": false,
      "stateMutability": "view",
      "type": "function"
    },
    {
      "constant": false,
      "inputs": [
        {
          "internalType": "address",
          "name": "impl",
          "type": "address"
        }
      ],
      "name": "upgradeTo",
      "outputs": [],
      "payable": false,
      "stateMutability": "nonpayable",
      "type": "function"
    }
  ],
  "bytecode": "0x608060405242603c0160025534801561001757600080fd5b506040516103b53803806103b58339818101604052604081101561003a57600080fd5b508051602090910151600180546001600160a01b03199081163317909155600080546001600160a01b0380861691909316178082556040805163ca446dd960e01b81526437bbb732b960d91b600482015284861660248201529051919093169263ca446dd992604480830193919282900301818387803b1580156100bd57600080fd5b505af11580156100d1573d6000803e3d6000fd5b5050505050506102cf806100e66000396000f3fe60806040526004361061003f5760003560e01c80633659cfe6146100be57806359679b0f146100f35780635c60da1b14610124578063f2fde38b14610139575b600061004961016c565b90506001600160a01b03811661005e57600080fd5b60606000368080601f016020809104026020016040519081016040528093929190818152602001838380828437600092018290525084519495509384935091505060208401855af43d604051816000823e8280156100ba578282f35b8282fd5b3480156100ca57600080fd5b506100f1600480360360208110156100e157600080fd5b50356001600160a01b031661017b565b005b3480156100ff57600080fd5b50610108610205565b604080516001600160a01b039092168252519081900360200190f35b34801561013057600080fd5b5061010861016c565b34801561014557600080fd5b506100f16004803603602081101561015c57600080fd5b50356001600160a01b0316610214565b6003546001600160a01b031690565b6001546001600160a01b0316331461019257600080fd5b42600254106101a057600080fd5b6003546001600160a01b03828116911614156101bb57600080fd5b600380546001600160a01b0319166001600160a01b0383169081179091556040517fbc7cd75a20ee27fd9adebab32041f755214dbc6bffa90cc0225b39da2e5c2d3b90600090a250565b6003546001600160a01b031681565b6001546001600160a01b0316331461022b57600080fd5b6001600160a01b03811661023e57600080fd5b6001546040516001600160a01b038084169216907f8be0079c531659141344cd1fd0a4f28419497f9722a3daafe3b4186f6b6457e090600090a3600180546001600160a01b0319166001600160a01b039290921691909117905556fea265627a7a72315820559576bbdb473b7a619845f4c8520498840c9f78b49b9d1ed3bd2b4b562dc9a064736f6c63430005100032",
  "source": "pragma solidity ^0.5.16;\n\nimport \"./Ownable.sol\";\nimport \"./StorageState.sol\";\n\ncontract Proxy is StorageState, Ownable {\n    uint256 deadline = now + 1 minutes;\n\n    constructor(KeyValueStorage storage_, address _owner) public {\n        _storage = storage_;\n        _storage.setAddress(\"owner\", _owner);\n    }\n\n    modifier checkUpgradeTime() {\n        require(deadline < now);\n        _;\n    }\n    event Upgraded(address indexed implementation);\n\n    address public _implementation;\n\n    function implementation() public view returns (address) {\n        return _implementation;\n    }\n\n    function upgradeTo(address impl) public onlyOwner checkUpgradeTime {\n        require(_implementation != impl);\n        _implementation = impl;\n        emit Upgraded(impl);\n    }\n\n    function() external payable {\n        address _impl = implementation();\n        require(_impl != address(0));\n        bytes memory data = msg.data;\n\n        assembly {\n            let result := delegatecall(\n                gas,\n                _impl,\n                add(data, 0x20),\n                mload(data),\n                0,\n                0\n            )\n            let size := returndatasize\n            let ptr := mload(0x40)\n            returndatacopy(ptr, 0, size)\n            switch result\n                case 0 {\n                    revert(ptr, size)\n                }\n                default {\n                    return(ptr, size)\n                }\n        }\n    }\n}\n",
  "sourcePath": "/home/aman/Desktop/Etherum/upradeableToken/contracts/Proxy.sol",
  "compiler": {
    "name": "solc",
    "version": "0.5.16+commit.9c3226ce.Emscripten.clang"
  },
  "schemaVersion": "3.2.5",
  "updatedAt": "2021-02-04T08:28:32.513Z",
  "devdoc": {
    "methods": {
      "transferOwnership(address)": {
        "details": "Allows the current owner to transfer control of the contract to a newOwner.",
        "params": {
          "newOwner": "The address to transfer ownership to."
        }
      }
    }
  },
  "userdoc": {
    "methods": {}
  }
}